:100000000C945D000C9485000C9485000C94850084
:100010000C9485000C9485000C9485000C9485004C
:100020000C9485000C9485000C9485000C9485003C
:100030000C9485000C9485000C9485000C9485002C
:100040000C94B8040C9485000C947E040C94430426
:100050000C9485000C9485000C9485000C9485000C
:100060000C9418030C9485000000000700020100A6
:100070000003040600000000000000000000000073
:10008000250028002B0000000000240027002A0083
:10009000040404040404040402020202020203032E
:1000A0000303030301020408102040800102040836
:1000B0001020010204081020020511241FBECFEFFA
:1000C000D8E0DEBFCDBF11E0A0E0B1E0ECE2FDE0A2
:1000D00002C005900D92A833B107D9F722E0A8E33A
:1000E000B1E001C01D92A139B207E1F710E0CDE502
:1000F000D0E004C02197FE010E948E06CC35D107C6
:10010000C9F70E9449050C9469060C940000E0911F
:100110006F02F09170020190F081E02D682F8FE660
:1001200092E0099485ED8093BC008091BC0084FD31
:10013000FCCF1092B50108950895E0916B01F09104
:100140006C01309729F010926A01109269010994AC
:100150000895CF93DF93AC01E0916701F0916801BE
:100160003097F1F090916601809165019817C0F089
:1001700090E0292F30E02617370754F4D901AB5B04
:10018000BE4FEA01C20FD31F88818C939F5FF1CFCE
:100190001092660160936501CB01DF91CF910994C4
:1001A000DF91CF9108950895E091660180916501F6
:1001B000E81730F4F0E0EB5BFE4F808190E00895AB
:1001C0008FEF9FEF089590916601809165019817D8
:1001D00050F4E92FF0E0EB5BFE4F208130E09F5FB1
:1001E0009093660102C02FEF3FEFC90108958091FF
:1001F000650190E020916601821B91090895CA0172
:10020000413288F42091B501243069F440938F0184
:10021000FB014DE651E0DA012A2F241B281718F4C0
:1002200021912D93F9CF08958091B501843029F45F
:1002300081E080938F0160936D0181E090E00895EB
:100240000F931F93CF93DF93FC01A685B7858D0194
:10025000005C1F4FE8018881998101968F7399276F
:10026000AD014E5B5F4FEA01288139818217930708
:10027000D1F3E80128813981A20FB31F6C93A685C1
:10028000B785A05CBF4F11969C938E93A689B789C2
:100290002C9181E090E0078C02C0880F991F0A948E
:1002A000E2F7822B8C9381E081A30488F589E02D0D
:1002B00080818064808381E090E0DF91CF911F9105
:1002C0000F910895FC0181A1882329F0A489B589A3
:1002D0008C9186FFFBCF11A20895FC01A485B58502
:1002E000FD01E05CFF4F2081318132968081918158
:1002F0002817390779F080819181A80FB91F8C9157
:10030000208131812F5F3F4F2F733327318320832B
:1003100090E008958FEF9FEF0895DC011C96ED911A
:10032000FC911D97DF01A05CBF4F2D913C9111976F
:1003300012968D919C9111972817390739F08D915C
:100340009C91E80FF91F808190E008958FEF9FEF57
:100350000895FC0124853585F901E05CFF4F80811B
:100360009181329620813181821B930B8F73992763
:1003700008958FE692E00C94A901CF92DF92EF925C
:10038000FF920F931F93CF93DF936C01EB017B01DF
:10039000E40EF51E00E010E0CE15DF0561F0699176
:1003A000D601ED91FC910190F081E02DC6010995F7
:1003B000080F191FF1CFC801DF91CF911F910F9145
:1003C000FF90EF90DF90CF90089590E0FC01E85906
:1003D000FF4F3491FC01EC55FF4F2491FC01E05795
:1003E000FF4FE491EE2309F43BC0332339F133305E
:1003F00091F038F43130A9F0323001F584B58F7DB9
:1004000012C0363091F03730A1F03430B9F4809119
:1004100080008F7D03C0809180008F778093800063
:100420000DC084B58F7784BD09C08091B0008F77EF
:1004300003C08091B0008F7D8093B000F0E0EE0F9C
:10044000FF1FE458FF4FA591B4918FB7F894EC913A
:10045000611103C020952E2301C02E2B2C938FBF3A
:1004600008953FB7F8948091410190914201A09185
:100470004301B091440126B5A89B05C02F3F19F058
:100480000196A11DB11D3FBFBA2FA92F982F882714
:10049000820F911DA11DB11DBC01CD0142E0660F6F
:1004A000771F881F991F4A95D1F7089560913A01E7
:1004B0008BED91E00C941401009769F0FC01019020
:1004C0000020E9F73197AF01481B590BBC018FE6BB
:1004D00092E00C94BD0180E090E008958F929F928D
:1004E000AF92BF92EF92FF920F931F93CF93DF9340
:1004F000CDB7DEB7A1970FB6F894DEBF0FBECDBF64
:10050000162F042F19A2423008F40AE07E0121E2DE
:10051000E20EF11C802E912CA12CB12C612FA50193
:1005200094010E946C06029F1019112481E0E81AC0
:10053000F1081A3014F4105D01C0195CF701108342
:10054000122F732FCA01232B242B252B39F7C70118
:100550000E945C02A1960FB6F894DEBF0FBECDBF1D
:10056000DF91CF911F910F91FF90EF90BF90AF90CF
:100570009F908F900895CF92DF92EF92FF9290918B
:10058000650180916601981709F44DC08BED91E0EB
:100590000E94E30090933B0180933A0180E291E056
:1005A0000E945C02C0903A01D0903B010D2C000CDF
:1005B000EE08FF08F7FE0CC08DE20E948700662758
:1005C0007727CB016C197D098E099F094AE003C08A
:1005D0004AE0C701B6010E946E028DE00E948700CA
:1005E0008AE00E948700E0903A01F0903B0181E0B0
:1005F000E816F10421F68091380190913901892B98
:1006000049F461E08DE00E94E501F0923901E09249
:100610003801B5CF60E08DE00E94E501109239010C
:1006200010923801ACCFFF90EF90DF90CF900895FB
:100630001F920F920FB60F9211242F933F934F9357
:100640005F936F937F938F939F93AF93BF93EF933A
:10065000FF938091B900887F803609F49CC068F5CB
:10066000883209F45BC090F4803109F454C038F446
:10067000882309F4F3C0883009F44DC0F3C08831F1
:1006800009F44CC0803209F45DC0ECC0803409F438
:1006900068C048F4803309F455C0883309F0E2C0DB
:1006A0008093B401D5C0803509F44FC0883509F472
:1006B0005DC0883409F0D6C0D3C0883909F4C4C0FD
:1006C000A8F4883709F467C038F4883609F463C0A1
:1006D000803709F460C0C6C0883809F4B5C08039D5
:1006E00009F45FC0803809F0BDC05BC0803B09F4ED
:1006F00083C038F4803A09F466C0883A09F47CC0B3
:10070000B1C0803C09F4A4C0883C09F4A1C0883B76
:1007100009F487C0A7C08091DA0110C09091D90177
:100720008091D801981770F5E091D90181E08E0F82
:100730008093D901F0E0E854FE4F80818093BB00A4
:1007400085EC83C08093B4018BC0E091D90181E036
:100750008E0F8093D9018091BB00F0E0E854FE4FEA
:1007600080839091D9018091D8016BC0E091D9012B
:1007700081E08E0F8093D9018091BB00F0E0E854B6
:10078000FE4F80838091B70181116AC081E0809320
:10079000B60184EA5EC083E08093B5011092B30194
:1007A000CFCF8091B301803208F04EC0E091B30109
:1007B00081E08E0F8093B3018091BB00F0E0ED5695
:1007C000FE4F8083BDCF8091B301803230F4E09141
:1007D000B301F0E0ED56FE4F10820E94920060914E
:1007E000B30170E0E0919101F091920183E991E011
:1007F00009951092B3012CC084E08093B50110924A
:10080000900110928F01E0918D01F0918E01099578
:1008100080918F01811105C081E080938F0110923A
:100820006D01E091900181E08E0F80939001F0E0E6
:10083000E359FE4F80818093BB009091900180919D
:100840008F01981708F47CCF85E88093BC000AC01C
:1008500085EC8093BC001092B50104C01092B401E5
:100860000E949200FF91EF91BF91AF919F918F9164
:100870007F916F915F914F913F912F910F900FBE9C
:100880000F901F9018951F920F920FB60F92112480
:100890002F933F938F939F93EF93FF932091270282
:1008A000309128028091290290912A022817390755
:1008B00031F48091C1008F7D8093C10014C0E0911C
:1008C0002902F0912A02E951FE4F208180912902EC
:1008D00090912A0201968F73992790932A02809310
:1008E00029022093C600FF91EF919F918F913F9134
:1008F0002F910F900FBE0F901F9018951F920F927F
:100900000FB60F9211242F934F935F938F939F9362
:10091000EF93FF938091C00082FD1CC02091C60020
:1009200080916B0290916C0201968F739927409190
:100930006D0250916E028417950771F0E0916B0281
:10094000F0916C02E55DFD4F208390936C028093E3
:100950006B0202C08091C600FF91EF919F918F9131
:100960005F914F912F910F900FBE0F901F90189590
:100970001F920F920FB60F9211242F933F938F93D4
:100980009F93AF93BF9380913D0190913E01A091C1
:100990003F01B091400130913C0123E0230F2D37FE
:1009A00020F40196A11DB11D05C026E8230F029673
:1009B000A11DB11D20933C0180933D0190933E0108
:1009C000A0933F01B0934001809141019091420179
:1009D000A0914301B09144010196A11DB11D8093E6
:1009E000410190934201A0934301B0934401BF9110
:1009F000AF919F918F913F912F910F900FBE0F90CC
:100A00001F901895EBEDF1E01382128288EE93E0CF
:100A1000A0E0B0E084839583A683B78324E031E02F
:100A200031832083EFE6F2E0138212828483958380
:100A3000A683B78384E191E0918380838BE292E087
:100A40009587848787EE91E09787868785EC90E08D
:100A5000918B808B84EC90E0938B828B80EC90E088
:100A6000958B848B81EC90E0978B868B82EC90E069
:100A7000918F808F86EC90E0938F828F84E0848FBB
:100A800083E0858F87E0868F85E0878F81E080A374
:100A90000895789484B5826084BD84B5816084BDF6
:100AA00085B5826085BD85B5816085BD80916E000C
:100AB000816080936E00109281008091810082603D
:100AC000809381008091810081608093810080917A
:100AD00080008160809380008091B1008460809369
:100AE000B1008091B00081608093B00080917A0065
:100AF000846080937A0080917A00826080937A008B
:100B000080917A00816080937A0080917A00806879
:100B100080937A001092C100E1EBF0E02491EDE9BE
:100B2000F0E08491882399F090E0880F991FFC01F0
:100B3000EA57FF4FA591B491FC01E458FF4F85910E
:100B400094918FB7F894EC91E22BEC938FBFE091E6
:100B50008302F091840281E090E09C0100908F027A
:100B600002C0220F331F0A94E2F72083E0917F0234
:100B7000F09180021082E0918102F09182022FECCC
:100B8000208310929002E0918502F09186024081CC
:100B90009C0100908B0202C0220F331F0A94E2F7DF
:100BA000242B2083E0918502F091860240819C01F4
:100BB00000908C0202C0220F331F0A94E2F7242B0C
:100BC0002083E0918502F091860240819C01009093
:100BD0008D0202C0220F331F0A94E2F7242B2083D8
:100BE000E0918502F0918602208100908E0202C081
:100BF000880F991F0A94E2F780958223808388E00A
:100C00008093BA008DE990E090938E0180938D01DE
:100C100089EA90E09093920180939101109266018D
:100C20001092650110926A01109269011092B5014B
:100C300081E08093B7011092B60161E082E10E94E9
:100C4000E50161E083E10E94E5018091B9008E7FBA
:100C50008093B9008091B9008D7F8093B90088E4BA
:100C60008093B80085E48093BC008BEB92E0909376
:100C700068018093670186E592E090936C01809310
:100C80006B0180E391E00E945C028DE00E9487008E
:100C90008AE00E9487000E943102EB0184E6C82EA0
:100CA000D12CE12CF12C0E9431026C1B7D0B683E93
:100CB000734038F081E0C81AD108E108F108C85142
:100CC000DC4FC114D104E104F10469F70E94B901B9
:100CD000E2CFF8940C949406A1E21A2EAA1BBB1B37
:100CE000FD010DC0AA1FBB1FEE1FFF1FA217B307F8
:100CF000E407F50720F0A21BB30BE40BF50B661F0E
:100D0000771F881F991F1A9469F7609570958095D1
:100D100090959B01AC01BD01CF010895EE0FFF1F1F
:0C0D20000590F491E02D0994F894FFCFA9
:100D2C00000000001401FF00F700E300D400D30022
:100D3C00000000002001BD01A9016D018D016201BF
:100D4C00646174612072656365697665643A20003C
:080D5C00526561647921000079
:00000001FF
